{
  "abi": [
    {
      "type": "fallback",
      "stateMutability": "payable"
    },
    {
      "type": "receive",
      "stateMutability": "payable"
    },
    {
      "type": "function",
      "name": "DOMAIN_SEPARATOR",
      "inputs": [],
      "outputs": [
        {
          "name": "",
          "type": "bytes32",
          "internalType": "bytes32"
        }
      ],
      "stateMutability": "view"
    },
    {
      "type": "function",
      "name": "chgPasswdAddr",
      "inputs": [
        {
          "name": "_newPasswdAddr",
          "type": "address",
          "internalType": "address"
        },
        {
          "name": "_newQuestionNos",
          "type": "string",
          "internalType": "string"
        },
        {
          "name": "estimatedFee",
          "type": "uint256",
          "internalType": "uint256"
        },
        {
          "name": "_passwdAddr",
          "type": "address",
          "internalType": "address"
        },
        {
          "name": "_signature",
          "type": "bytes",
          "internalType": "bytes"
        }
      ],
      "outputs": [],
      "stateMutability": "nonpayable"
    },
    {
      "type": "function",
      "name": "eip712Domain",
      "inputs": [],
      "outputs": [
        {
          "name": "fields",
          "type": "bytes1",
          "internalType": "bytes1"
        },
        {
          "name": "name",
          "type": "string",
          "internalType": "string"
        },
        {
          "name": "version",
          "type": "string",
          "internalType": "string"
        },
        {
          "name": "chainId",
          "type": "uint256",
          "internalType": "uint256"
        },
        {
          "name": "verifyingContract",
          "type": "address",
          "internalType": "address"
        },
        {
          "name": "salt",
          "type": "bytes32",
          "internalType": "bytes32"
        },
        {
          "name": "extensions",
          "type": "uint256[]",
          "internalType": "uint256[]"
        }
      ],
      "stateMutability": "view"
    },
    {
      "type": "function",
      "name": "gasFreeAmount",
      "inputs": [],
      "outputs": [
        {
          "name": "",
          "type": "uint256",
          "internalType": "uint256"
        }
      ],
      "stateMutability": "view"
    },
    {
      "type": "function",
      "name": "increaseGasFreeAmount",
      "inputs": [
        {
          "name": "_amount",
          "type": "uint256",
          "internalType": "uint256"
        }
      ],
      "outputs": [],
      "stateMutability": "nonpayable"
    },
    {
      "type": "function",
      "name": "initByFactory",
      "inputs": [
        {
          "name": "_entryEOA",
          "type": "address",
          "internalType": "address"
        },
        {
          "name": "_passwdAddr",
          "type": "address",
          "internalType": "address"
        },
        {
          "name": "_questionNos",
          "type": "string",
          "internalType": "string"
        },
        {
          "name": "_gasFreeAmount",
          "type": "uint256",
          "internalType": "uint256"
        }
      ],
      "outputs": [],
      "stateMutability": "nonpayable"
    },
    {
      "type": "function",
      "name": "initUpgradeImpl",
      "inputs": [
        {
          "name": "_impl",
          "type": "address",
          "internalType": "address"
        },
        {
          "name": "_bigBrotherAccount",
          "type": "address",
          "internalType": "address"
        }
      ],
      "outputs": [],
      "stateMutability": "nonpayable"
    },
    {
      "type": "function",
      "name": "nonce",
      "inputs": [],
      "outputs": [
        {
          "name": "",
          "type": "uint256",
          "internalType": "uint256"
        }
      ],
      "stateMutability": "view"
    },
    {
      "type": "function",
      "name": "passwdAddr",
      "inputs": [],
      "outputs": [
        {
          "name": "",
          "type": "address",
          "internalType": "address"
        }
      ],
      "stateMutability": "view"
    },
    {
      "type": "function",
      "name": "questionNos",
      "inputs": [],
      "outputs": [
        {
          "name": "",
          "type": "string",
          "internalType": "string"
        }
      ],
      "stateMutability": "view"
    },
    {
      "type": "function",
      "name": "sendMultiTransaction",
      "inputs": [
        {
          "name": "toArr",
          "type": "address[]",
          "internalType": "address[]"
        },
        {
          "name": "amountArr",
          "type": "uint256[]",
          "internalType": "uint256[]"
        },
        {
          "name": "dataArr",
          "type": "bytes[]",
          "internalType": "bytes[]"
        },
        {
          "name": "estimatedFee",
          "type": "uint256",
          "internalType": "uint256"
        },
        {
          "name": "_passwdAddr",
          "type": "address",
          "internalType": "address"
        },
        {
          "name": "_signature",
          "type": "bytes",
          "internalType": "bytes"
        }
      ],
      "outputs": [
        {
          "name": "results",
          "type": "bytes[]",
          "internalType": "bytes[]"
        }
      ],
      "stateMutability": "payable"
    },
    {
      "type": "function",
      "name": "sendTransaction",
      "inputs": [
        {
          "name": "to",
          "type": "address",
          "internalType": "address"
        },
        {
          "name": "amount",
          "type": "uint256",
          "internalType": "uint256"
        },
        {
          "name": "data",
          "type": "bytes",
          "internalType": "bytes"
        },
        {
          "name": "estimatedFee",
          "type": "uint256",
          "internalType": "uint256"
        },
        {
          "name": "_passwdAddr",
          "type": "address",
          "internalType": "address"
        },
        {
          "name": "_signature",
          "type": "bytes",
          "internalType": "bytes"
        }
      ],
      "outputs": [
        {
          "name": "rtnData",
          "type": "bytes",
          "internalType": "bytes"
        }
      ],
      "stateMutability": "payable"
    },
    {
      "type": "function",
      "name": "standbyVariables",
      "inputs": [
        {
          "name": "",
          "type": "uint256",
          "internalType": "uint256"
        }
      ],
      "outputs": [
        {
          "name": "",
          "type": "bytes32",
          "internalType": "bytes32"
        }
      ],
      "stateMutability": "view"
    },
    {
      "type": "function",
      "name": "upgradeImpl",
      "inputs": [
        {
          "name": "estimatedFee",
          "type": "uint256",
          "internalType": "uint256"
        },
        {
          "name": "_passwdAddr",
          "type": "address",
          "internalType": "address"
        },
        {
          "name": "_signature",
          "type": "bytes",
          "internalType": "bytes"
        }
      ],
      "outputs": [],
      "stateMutability": "nonpayable"
    },
    {
      "type": "function",
      "name": "w3eaPointAmount",
      "inputs": [],
      "outputs": [
        {
          "name": "",
          "type": "uint256",
          "internalType": "uint256"
        }
      ],
      "stateMutability": "view"
    },
    {
      "type": "event",
      "name": "ChgEntry",
      "inputs": [
        {
          "name": "newEntry",
          "type": "address",
          "indexed": false,
          "internalType": "address"
        }
      ],
      "anonymous": false
    },
    {
      "type": "event",
      "name": "ChgPasswdAddr",
      "inputs": [
        {
          "name": "oldPasswdAddr",
          "type": "address",
          "indexed": false,
          "internalType": "address"
        },
        {
          "name": "newPasswdAddr",
          "type": "address",
          "indexed": false,
          "internalType": "address"
        }
      ],
      "anonymous": false
    },
    {
      "type": "event",
      "name": "EIP712DomainChanged",
      "inputs": [],
      "anonymous": false
    },
    {
      "type": "event",
      "name": "InitAccount",
      "inputs": [
        {
          "name": "passwdAddr",
          "type": "address",
          "indexed": false,
          "internalType": "address"
        },
        {
          "name": "factory",
          "type": "address",
          "indexed": false,
          "internalType": "address"
        }
      ],
      "anonymous": false
    },
    {
      "type": "event",
      "name": "UpgradeImpl",
      "inputs": [
        {
          "name": "oldImpl",
          "type": "address",
          "indexed": false,
          "internalType": "address"
        },
        {
          "name": "newImpl",
          "type": "address",
          "indexed": false,
          "internalType": "address"
        }
      ],
      "anonymous": false
    },
    {
      "type": "error",
      "name": "ECDSAInvalidSignature",
      "inputs": []
    },
    {
      "type": "error",
      "name": "ECDSAInvalidSignatureLength",
      "inputs": [
        {
          "name": "length",
          "type": "uint256",
          "internalType": "uint256"
        }
      ]
    },
    {
      "type": "error",
      "name": "ECDSAInvalidSignatureS",
      "inputs": [
        {
          "name": "s",
          "type": "bytes32",
          "internalType": "bytes32"
        }
      ]
    },
    {
      "type": "error",
      "name": "FunctionError",
      "inputs": []
    },
    {
      "type": "error",
      "name": "InvalidShortString",
      "inputs": []
    },
    {
      "type": "error",
      "name": "StringTooLong",
      "inputs": [
        {
          "name": "str",
          "type": "string",
          "internalType": "string"
        }
      ]
    }
  ],
  "bytecode": {
    "object": "0x61016080604052346101545761001481610159565b6007815260208101661058d8dbdd5b9d60ca1b81526040519161003683610159565b6001835260208301603160f81b815261004e82610174565b9261012093845261005e85610333565b92610140938452519020938460e05251902091610100938385524660a0526040519360208501917f8b73c3c69bb8fe3d512ecc4cf759cc79239f7b179b0ffacaa9a75d522b39400f8352604086015260608501524660808501523060a085015260a0845260c084019380851060018060401b0386111761013e5760408590525190206080523060c052600880546001600160a01b03191633179055611cf793846104ce853960805184611722015260a051846117dd015260c051846116ec015260e0518461177101525183611797015251826107450152518161076f0152f35b634e487b7160e01b600052604160045260246000fd5b600080fd5b604081019081106001600160401b0382111761013e57604052565b8051602091908281101561020e575090601f8251116101af57808251920151908083106101a057501790565b82600019910360031b1b161790565b90604051809263305a27a960e01b82528060048301528251908160248401526000935b8285106101f5575050604492506000838284010152601f80199101168101030190fd5b84810182015186860160440152938101938593506101d2565b6001600160401b03811161013e576000928354926001938481811c91168015610329575b8382101461031557601f81116102e2575b5081601f841160011461027f57509282939183928694610274575b50501b916000199060031b1c191617905560ff90565b01519250388061025e565b919083601f1981168780528488209488905b888383106102c857505050106102af575b505050811b01905560ff90565b015160001960f88460031b161c191690553880806102a2565b858701518855909601959485019487935090810190610291565b85805284601f848820920160051c820191601f860160051c015b82811061030a575050610243565b8781550185906102fc565b634e487b7160e01b86526022600452602486fd5b90607f1690610232565b8051602090818110156103bc5750601f82511161035d57808251920151908083106101a057501790565b90604051809263305a27a960e01b82528060048301528251908160248401526000935b8285106103a3575050604492506000838284010152601f80199101168101030190fd5b8481018201518686016044015293810193859350610380565b9192916001600160401b03811161013e5760019182548381811c911680156104c3575b828210146104ad57601f8111610477575b5080601f831160011461042d575081929394600092610422575b5050600019600383901b1c191690821b17905560ff90565b01519050388061040a565b90601f198316958460005282600020926000905b88821061046057505083859697106102af57505050811b01905560ff90565b808785968294968601518155019501930190610441565b8360005283601f83600020920160051c820191601f850160051c015b8281106104a15750506103f0565b60008155018490610493565b634e487b7160e01b600052602260045260246000fd5b90607f16906103df56fe60806040526004361015610015575b366116d757005b60003560e01c806311fc372d1461010557806328885a80146101005780633195b8df146100fb5780633644e515146100f65780634b053631146100f15780634b28eac6146100ec5780638305cc43146100e757806384b0196e146100e2578063952b5c93146100dd578063affed0e0146100d8578063b62e9b26146100d3578063bf509515146100ce578063eccb0f9f146100c9578063f7677ec2146100c45763f79c91930361000e57610d61565b610be6565b610bb7565b6109ec565b610965565b610947565b610862565b61072a565b610686565b6103ed565b6101ed565b61017d565b610151565b610128565b34610123576000366003190112610123576020600954604051908152f35b600080fd5b34610123576000366003190112610123576004546040516001600160a01b039091168152602090f35b3461012357602036600319011261012357600435600052600b6020526020604060002054604051908152f35b346101235760003660031901126101235760206101986116e9565b604051908152f35b6001600160a01b0381160361012357565b608435906101be826101a0565b565b9181601f84011215610123578235916001600160401b038311610123576020838186019501011161012357565b346101235760803660031901126101235760043561020a816101a0565b60243590610217826101a0565b6044356001600160401b038111610123576102369036906004016101c0565b600854936001600160a01b039390929091908486161561025257005b7fd15cf8df5e2d60ca581fa0aad07778c6cfbec8b2a1da625e52427b13b25dd122956102eb956102c0946001600160601b0360a01b928333911617600855169060075416176007556102bb8460018060a01b03166001600160601b0360a01b6004541617600455565b610e74565b6102cb606435600a55565b604080516001600160a01b03909216825233602083015290918291820190565b0390a1005b634e487b7160e01b600052604160045260246000fd5b602081019081106001600160401b0382111761032157604052565b6102f0565b60c081019081106001600160401b0382111761032157604052565b604081019081106001600160401b0382111761032157604052565b90601f801991011681019081106001600160401b0382111761032157604052565b6001600160401b03811161032157601f01601f191660200190565b9291926103a48261037d565b916103b2604051938461035c565b829481845281830111610123578281602093846000960137010152565b9080601f83011215610123578160206103ea93359101610398565b90565b346101235760603660031901126101235760243560043561040d826101a0565b6044356001600160401b0381116101235761042c9036906004016103cf565b9160405190602082018261044585839190602083019252565b0392610459601f199485810183528261035c565b5190206003549091906001600160a01b039081168061055257506004546001600160a01b03165b1691823303610494575b610492611032565b005b61052495610514610519936104be9361050c61051f986104ca6104be60075460018060a01b031690565b6001600160a01b031690565b3314801561052f575b6104dc90610f79565b6104ec6006546001810160065590565b610500604051948592602084019788610fb2565b0390810183528261035c565b519020611803565b611829565b14610ff6565b6118ea565b38808080808061048a565b506008546104dc90610549906001600160a01b03166104be565b331490506104d3565b602060049160405192838092625110b560e71b82525afa9081156105ad5760009161057e575b50610480565b6105a0915060203d6020116105a6575b610598818361035c565b810190610f58565b38610578565b503d61058e565b610f6d565b9181601f84011215610123578235916001600160401b038311610123576020808501948460051b01011161012357565b919082519283825260005b84811061060e575050826000602080949584010152601f8019910116010190565b6020818301810151848301820152016105ed565b6020808201906020835283518092526040830192602060408460051b8301019501936000915b8483106106585750505050505090565b9091929394958480610676600193603f198682030187528a516105e2565b9801930193019194939290610648565b60c0366003190112610123576001600160401b03600435818111610123576106b29036906004016105b2565b602492919235828111610123576106cd9036906004016105b2565b9093604435848111610123576106e79036906004016105b2565b906106f06101b1565b9360a435968711610123576107269761071061071a9836906004016103cf565b9660643595611239565b60405191829182610622565b0390f35b3461012357600080600319360112610825576107c8906107697f0000000000000000000000000000000000000000000000000000000000000000611a7b565b906107937f0000000000000000000000000000000000000000000000000000000000000000611b7c565b90604051916107a183610306565b8183526107d6602091604051968796600f60f81b885260e0602089015260e08801906105e2565b9086820360408801526105e2565b904660608601523060808601528260a086015284820360c0860152602080855193848152019401925b82811061080e57505050500390f35b8351855286955093810193928101926001016107ff565b80fd5b90600182811c92168015610858575b602083101461084257565b634e487b7160e01b600052602260045260246000fd5b91607f1691610837565b3461012357600080600319360112610825576040519080826005549161088783610828565b92838352602094600191866001821691826000146109255750506001146108cb575b50506108b79250038361035c565b6107266040519282849384528301906105e2565b90859250600582527f036b6384b5eca791c62761152d0c79bb0604c104a5fb6f4eb0703f3154bb3db05b85831061090d5750506108b7935082010138806108a9565b805483890185015287945086939092019181016108f5565b92509350506108b794915060ff191682840152151560051b82010138806108a9565b34610123576000366003190112610123576020600654604051908152f35b3461012357602036600319011261012357600854336001600160a01b03918216149081156109de575b50156109aa576104926109a5600435600a5461156d565b600a55565b60405162461bcd60e51b815260206004820152600c60248201526b6f6e6c7920666163746f727960a01b6044820152606490fd5b90506007541633143861098e565b346101235760a036600319011261012357600435610a09816101a0565b6001600160401b039060243582811161012357610a2a9036906004016101c0565b9160443560643594610a3b866101a0565b60843590811161012357610a539036906004016103cf565b90610a5f368686610398565b8051602091820120604080516001600160a01b03871681850190815291810192909252606080830185905282529197601f199490929091610aa160808261035c565b5190206003546001600160a01b0390811699908a610b6c576004546104929b506001600160a01b03165b1692833303610ade575b8a8a8a8a61157f565b61051461051f956105199461050c610b3d9a6104be96610b086104be60075460018060a01b031690565b33148015610b49575b610b1a90610f79565b610500610b2d6006546001810160065590565b9460405195869384019788610fb2565b38808080808080610ad5565b50600854610b1a90610b63906001600160a01b03166104be565b33149050610b11565b8160049b6040519c8d8092625110b560e71b82525afa80156105ad576104929b600091610b9a575b50610acb565b610bb19150833d85116105a657610598818361035c565b38610b94565b34610123576000366003190112610123576020600a54604051908152f35b9060206103ea9281815201906105e2565b60c036600319011261012357600435610bfe816101a0565b602435604435916001600160401b039283811161012357610c239036906004016101c0565b92909160643560843595610c36876101a0565b60a43590811161012357610c4e9036906004016103cf565b906040516020810181610c65848a8a8a8a8761163a565b0391610c79601f199384810183528261035c565b5190206003546001600160a01b0399908a1680610d0557506004546107269a610cc49a9998979695949392916001600160a01b03165b1691823303610cd0575b505050505050611665565b60405191829182610bd5565b610cfa95610514610519936104be9361050c61051f986104ca6104be60075460018060a01b031690565b388080808080610cb9565b90602060049a99989796959493926040519b8c8092625110b560e71b82525afa9a8b156105ad576107269b610cc49b600091610d42575b50610caf565b610d5b915060203d6020116105a657610598818361035c565b38610d3c565b3461012357604036600319011261012357600435610d7e816101a0565b60243590610d8b826101a0565b6002546001600160a01b03929083811615610da257005b837f2bb785f547c0cd9dd6e7647d00bfdc6e64884010271c104334389d3b62c55d20946040941692836001600160601b0360a01b8094161760025516906003541617600355678ac7230489e80001600955815190600082526020820152a1005b601f8111610e0e575050565b60009060056000527f036b6384b5eca791c62761152d0c79bb0604c104a5fb6f4eb0703f3154bb3db0906020601f850160051c83019410610e6a575b601f0160051c01915b828110610e5f57505050565b818155600101610e53565b9092508290610e4a565b91906001600160401b03811161032157610e9881610e93600554610828565b610e02565b6000601f8211600114610ed9578190610ec99394600092610ece575b50508160011b916000199060031b1c19161790565b600555565b013590503880610eb4565b6005600052601f198216937f036b6384b5eca791c62761152d0c79bb0604c104a5fb6f4eb0703f3154bb3db091805b868110610f405750836001959610610f26575b505050811b01600555565b0135600019600384901b60f8161c19169055388080610f1b565b90926020600181928686013581550194019101610f08565b9081602091031261012357516103ea816101a0565b6040513d6000823e3d90fd5b15610f8057565b60405162461bcd60e51b815260206004820152600a6024820152696f6e6c7920656e74727960b01b6044820152606490fd5b60609194939260808201957f2064f38e180b94f053ced20b3e46ad64ac4656e9697a6722232e4e3b24523bfd835260018060a01b0316602083015260408201520152565b15610ffd57565b60405162461bcd60e51b815260206004820152600d60248201526c7065726d6974206572726f722160981b6044820152606490fd5b600854604051638804eb9f60e01b8152906001600160a01b03906020908390600490829085165afa9182156105ad576000926110d8575b506002549080821690831692838203611083575b50505050565b604080516001600160a01b0393841681529190921660208201527f2bb785f547c0cd9dd6e7647d00bfdc6e64884010271c104334389d3b62c55d209190a16001600160a01b031916176002553880808061107d565b6110f291925060203d6020116105a657610598818361035c565b9038611069565b908060209392818452848401376000828201840152601f01601f1916010190565b908281815260208091019360208360051b82010194846000925b858410611145575050505050505090565b90919293949596601f198282030184528735601e19843603018112156101235783018681019190356001600160401b03811161012357803603831361012357611193889283926001956110f9565b990194019401929594939190611134565b979695919492949390938060808a0160808b525260a08901949060005b81811061120e5750505087840360208901528084526001600160fb1b038111610123576060946112099460209260051b80928483013701818982030160408a0152019161111a565b930152565b909195600190873561121f816101a0565b828060a01b031681526020809101970191019190916111c1565b919395979092949697604051602081018161125a848c8c8c8c8c8c896111a4565b039161126e601f199384810183528261035c565b5190206003546001600160a01b039081169b908c6112e2576004546103ea9d506001600160a01b03165b16918233036112ad575b50505050505061145b565b6112d795610514610519936104be9361050c61051f986104ca6104be60075460018060a01b031690565b3880808080806112a2565b602060049d6040519e8f8092625110b560e71b82525afa80156105ad576103ea9d600091611311575b50611298565b61132a915060203d6020116105a657610598818361035c565b3861130b565b6001600160401b0381116103215760051b60200190565b634e487b7160e01b600052603260045260246000fd5b919081101561136d5760051b0190565b611347565b356103ea816101a0565b919081101561136d5760051b81013590601e19813603018212156101235701908135916001600160401b038311610123576020018236038113610123579190565b908092918237016000815290565b3d156113f6573d906113dc8261037d565b916113ea604051938461035c565b82523d6000602084013e565b606090565b805182101561136d5760209160051b010190565b1561141657565b60405162461bcd60e51b815260206004820152601960248201527f73656e644d756c74695472616e73616374696f6e204661696c000000000000006044820152606490fd5b92959493909561146a87611330565b9460409161147b604051978861035c565b888752601f1961148a8a611330565b0160005b8181106115445750506000985b808a106114ae5750959750505050505050565b6000806114c46114bf8d858c61135d565b611372565b8c6114dc6114d382888d61135d565b3591888b61137c565b91906114ec8a51809481936113bd565b03925af1996114f96113cb565b9a611513578a61150b8151151561140f565b805190602001fd5b88999a6115298260019495969798999a9b6113fb565b52611534818b6113fb565b500198979695949392919061149b565b60606020828b018101919091520161148e565b634e487b7160e01b600052601160045260246000fd5b9190820180921161157a57565b611557565b600354909291906001600160a01b039081166115fe5760045460408051929091166001600160a01b039081168352851660208301526101be946102bb9290917f86a654e36eea8a51afaa463e2c1bca2ebc738e4c12bec7f529d668689d409aa291a160018060a01b03166001600160601b0360a01b6004541617600455565b60405162461bcd60e51b81526020600482015260146024820152733173744163637443616e4368616e67654f6e6c7960601b6044820152606490fd5b959493611209926060949260018060a01b0316885260208801526080604088015260808701916110f9565b90926000938493826040519384928337810185815203925af1906116876113cb565b916101be575080511561169c57805190602001fd5b60405162461bcd60e51b815260206004820152601360248201527214d95b99151c985b9cd858dd1a5bdb91985a5b606a1b6044820152606490fd5b6040516314fb703160e21b8152600490fd5b307f00000000000000000000000000000000000000000000000000000000000000006001600160a01b031614806117da575b15611744577f000000000000000000000000000000000000000000000000000000000000000090565b60405160208101907f8b73c3c69bb8fe3d512ecc4cf759cc79239f7b179b0ffacaa9a75d522b39400f82527f000000000000000000000000000000000000000000000000000000000000000060408201527f000000000000000000000000000000000000000000000000000000000000000060608201524660808201523060a082015260a081526117d481610326565b51902090565b507f0000000000000000000000000000000000000000000000000000000000000000461461171b565b60429061180e6116e9565b906040519161190160f01b8352600283015260228201522090565b6103ea9161183691611992565b909291926119ee565b1561184657565b60405162461bcd60e51b815260206004820152600f60248201526e151c985b9cd9995c91d85cd1985a5b608a1b6044820152606490fd5b9063688b930091820391821161157a57565b9190820391821161157a57565b81156118a6570490565b634e487b7160e01b600052601260045260246000fd5b906509184e72a0009182810292818404149015171561157a57565b8181029291811591840414171561157a57565b600a548111611902576109a56101be91600a5461188f565b6000908180808084335af16119156113cb565b9015611986575061196b8261195c611957611973946101be96506368640600421060001461197f576119526119494261187d565b62278d00900490565b6118d7565b6118bc565b90503a6119785760019061189c565b60095461156d565b600955565b3a9061189c565b60016118d7565b61150b8151151561183f565b81519190604183036119c3576119bc92506020820151906060604084015193015160001a90611c3d565b9192909190565b505060009160029190565b600411156119d857565b634e487b7160e01b600052602160045260246000fd5b6119f7816119ce565b80611a00575050565b611a09816119ce565b60018103611a235760405163f645eedf60e01b8152600490fd5b611a2c816119ce565b60028103611a4d5760405163fce698f760e01b815260048101839052602490fd5b80611a596003926119ce565b14611a615750565b6040516335e2f38360e21b81526004810191909152602490fd5b60ff8114611ab95760ff811690601f8211611aa75760405191611a9d83610341565b8252602082015290565b604051632cd44ac360e21b8152600490fd5b5060405160008160005491611acd83610828565b80835292602090600190818116908115611b585750600114611af8575b50506103ea9250038261035c565b915092600080527f290decd9548b62a8d60345a988386fc84ba6bc95484008f6362f93160ef3e563936000925b828410611b4057506103ea9450505081016020013880611aea565b85548785018301529485019486945092810192611b25565b915050602092506103ea94915060ff191682840152151560051b8201013880611aea565b60ff8114611b9e5760ff811690601f8211611aa75760405191611a9d83610341565b50604051600081600191600154611bb481610828565b8084529360209160018116908115611b585750600114611bdc5750506103ea9250038261035c565b91509260016000527fb10e2d527612073b26eecdfd717e6a320cf44b4afac2b0732d9fcbe2b7fa0cf6936000925b828410611c2557506103ea9450505081016020013880611aea565b85548785018301529485019486945092810192611c0a565b91907f7fffffffffffffffffffffffffffffff5d576e7357a4501ddfe92f46681b20a08411611cb557926020929160ff608095604051948552168484015260408301526060820152600092839182805260015afa156105ad5780516001600160a01b03811615611cac57918190565b50809160019190565b5050506000916003919056fea2646970667358221220e40a1ae0bd27c0fb37dfdba74cde5dcd8fa7f267ccfaf8cd1ef0bbe8d613ad1964736f6c63430008190033",
    "linkReferences": {}
  },
  "methodIdentifiers": {
    "DOMAIN_SEPARATOR()": "3644e515",
    "chgPasswdAddr(address,string,uint256,address,bytes)": "bf509515",
    "eip712Domain()": "84b0196e",
    "gasFreeAmount()": "eccb0f9f",
    "increaseGasFreeAmount(uint256)": "b62e9b26",
    "initByFactory(address,address,string,uint256)": "4b053631",
    "initUpgradeImpl(address,address)": "f79c9193",
    "nonce()": "affed0e0",
    "passwdAddr()": "28885a80",
    "questionNos()": "952b5c93",
    "sendMultiTransaction(address[],uint256[],bytes[],uint256,address,bytes)": "8305cc43",
    "sendTransaction(address,uint256,bytes,uint256,address,bytes)": "f7677ec2",
    "standbyVariables(uint256)": "3195b8df",
    "upgradeImpl(uint256,address,bytes)": "4b28eac6",
    "w3eaPointAmount()": "11fc372d"
  },
  "id": 46
}