{
    "abi": [
        {
            "type": "constructor",
            "inputs": [
                {
                    "name": "_entryEOA",
                    "type": "address",
                    "internalType": "address"
                },
                {
                    "name": "_accountEntityTemplate",
                    "type": "address",
                    "internalType": "address"
                },
                {
                    "name": "_accountImpl",
                    "type": "address",
                    "internalType": "address"
                }
            ],
            "stateMutability": "nonpayable"
        },
        {
            "type": "function",
            "name": "accountImpl",
            "inputs": [],
            "outputs": [
                {
                    "name": "",
                    "type": "address",
                    "internalType": "address"
                }
            ],
            "stateMutability": "view"
        },
        {
            "type": "function",
            "name": "deployer",
            "inputs": [],
            "outputs": [
                {
                    "name": "",
                    "type": "address",
                    "internalType": "address"
                }
            ],
            "stateMutability": "view"
        },
        {
            "type": "function",
            "name": "increaseGasFreeAmount",
            "inputs": [
                {
                    "name": "acct",
                    "type": "address",
                    "internalType": "address"
                },
                {
                    "name": "amount",
                    "type": "uint256",
                    "internalType": "uint256"
                }
            ],
            "outputs": [],
            "stateMutability": "nonpayable"
        },
        {
            "type": "function",
            "name": "newAccount",
            "inputs": [
                {
                    "name": "_ownerId",
                    "type": "uint256",
                    "internalType": "uint256"
                },
                {
                    "name": "_passwdAddr",
                    "type": "address",
                    "internalType": "address"
                },
                {
                    "name": "_questionNos",
                    "type": "string",
                    "internalType": "string"
                },
                {
                    "name": "depositFeeAmount",
                    "type": "uint256",
                    "internalType": "uint256"
                }
            ],
            "outputs": [],
            "stateMutability": "nonpayable"
        },
        {
            "type": "function",
            "name": "newAccountAndSendTrans",
            "inputs": [
                {
                    "name": "_ownerId",
                    "type": "uint256",
                    "internalType": "uint256"
                },
                {
                    "name": "_passwdAddr",
                    "type": "address",
                    "internalType": "address"
                },
                {
                    "name": "_questionNos",
                    "type": "string",
                    "internalType": "string"
                },
                {
                    "name": "_depositFeeAmount",
                    "type": "uint256",
                    "internalType": "uint256"
                },
                {
                    "name": "_to",
                    "type": "address",
                    "internalType": "address"
                },
                {
                    "name": "_amount",
                    "type": "uint256",
                    "internalType": "uint256"
                },
                {
                    "name": "_data",
                    "type": "bytes",
                    "internalType": "bytes"
                },
                {
                    "name": "_estimatedFee",
                    "type": "uint256",
                    "internalType": "uint256"
                },
                {
                    "name": "_signature",
                    "type": "bytes",
                    "internalType": "bytes"
                }
            ],
            "outputs": [
                {
                    "name": "rtnData",
                    "type": "bytes",
                    "internalType": "bytes"
                }
            ],
            "stateMutability": "nonpayable"
        },
        {
            "type": "function",
            "name": "predictAccountAddress",
            "inputs": [
                {
                    "name": "_ownerId",
                    "type": "uint256",
                    "internalType": "uint256"
                }
            ],
            "outputs": [
                {
                    "name": "predicted",
                    "type": "address",
                    "internalType": "address"
                }
            ],
            "stateMutability": "view"
        },
        {
            "type": "function",
            "name": "queryAccount",
            "inputs": [
                {
                    "name": "_ownerId",
                    "type": "uint256",
                    "internalType": "uint256"
                }
            ],
            "outputs": [
                {
                    "name": "",
                    "type": "address",
                    "internalType": "address"
                }
            ],
            "stateMutability": "view"
        },
        {
            "type": "function",
            "name": "upgradeImpl",
            "inputs": [
                {
                    "name": "_newImpl",
                    "type": "address",
                    "internalType": "address"
                }
            ],
            "outputs": [],
            "stateMutability": "nonpayable"
        },
        {
            "type": "function",
            "name": "w3eaPoint",
            "inputs": [],
            "outputs": [
                {
                    "name": "",
                    "type": "address",
                    "internalType": "address"
                }
            ],
            "stateMutability": "view"
        },
        {
            "type": "event",
            "name": "CreateAccount",
            "inputs": [
                {
                    "name": "ownerId",
                    "type": "uint256",
                    "indexed": false,
                    "internalType": "uint256"
                },
                {
                    "name": "account",
                    "type": "address",
                    "indexed": false,
                    "internalType": "address"
                }
            ],
            "anonymous": false
        },
        {
            "type": "error",
            "name": "ERC1167FailedCreateClone",
            "inputs": []
        }
    ],
    "bytecode": {
        "object": "0x608034610102576001600160401b03601f611af338819003918201601f19168401918383118584101761010757808592606094604052833981010312610102576100488261011d565b61006060406100596020860161011d565b940161011d565b9160018060a01b0319933385600354161760035560018060a01b0393848092816000961688875416178655168660045416176004551684600554161760055560405190610d0f80830191838310908311176100ee57908291610de48339039082f09081156100e2575016906001541617600155604051610cb290816101328239f35b604051903d90823e3d90fd5b634e487b7160e01b84526041600452602484fd5b600080fd5b634e487b7160e01b600052604160045260246000fd5b51906001600160a01b03821682036101025756fe6080604052600436101561001257600080fd5b6000803560e01c80631a2f136314610a6c5780631f7f77f3146109f55780635addc736146106eb5780638804eb9f146106c2578063a8f3f66a14610642578063c2cf745b14610619578063d5f39488146105f0578063e31a20ac146105bd5763fecc85121461008057600080fd5b346105ba576101203660031901126105ba5761009a610ad1565b67ffffffffffffffff604435818111610540576100bb903690600401610ae7565b909290608435906001600160a01b03821682036105b55760c4358481116104b3576100ea903690600401610ae7565b9094610104359081116104c257366023820112156104c257610116903690602481600401359101610b99565b9161012b60018060a01b038954163314610c10565b6004358852600260205260408820546001600160a01b03166105815760048054608881901c62ffffff16763d602d80600a3d3981f3363d3d373d3d3d363d73000000178a5260781b6001600160781b0319166e5af43d82803e903d91602b57fd5bf31760205235603760098af5966001600160a01b0388161561056f576040805160043581526001600160a01b038a1660208201528a93917f452033573db49cf36742da05fb11e8af9b693e2d3effa92546a2871c157ca11791a16005546001600160a01b03169160043561ffff198116919082036105535784935b6001600160a01b038c163b1561054f578b946044879283604051988994859363f79c919360e01b8552600485015260018060a01b0316602484015260018060a01b03165af1938415610544578594610528575b5083546001600160a01b03169260043583036105215789925b60043503610507576102dd9161028a913691610b99565b915b6102c76040519384926020840196634b05363160e01b8852602485015260018060a01b031660448401526080606484015260a4830190610bd0565b606435608483015203601f198101835282610b5b565b5190828a5af16102eb610c4c565b50156104c6576001548796906001600160a01b0316803b156104c257604051634ce81e3b60e11b81526001600160a01b03831660048201529088908290602490829084905af19081156104b7578891610499575b5050600435875260026020908152604080892080546001600160a01b0319166001600160a01b0394851617905551637bb3bf6160e11b918101919091529316602484015260a435604484015260c0606484015260e4830181905291936103fb9385936103ed9392610104929190819087850137858101830189905260e43560848701526001600160a01b0390911660a4860152601f01601f1916840184810360e00160c48601520190610bd0565b03601f198101835282610b5b565b6004358252600260205260018060a01b0360408320541682602083519301915af1610424610c4c565b9061047d5780511561043857805190602001fd5b60405162461bcd60e51b815260206004820152601b60248201527f43616c6c2053656e645472616e73616374696f6e204661696c656400000000006044820152606490fd5b61049590604051918291602083526020830190610bd0565b0390f35b6104a590949394610b15565b6104b357863893929361033f565b8680fd5b6040513d8a823e3d90fd5b8780fd5b60405162461bcd60e51b815260206004820152601960248201527818d85b1b081a5b9a5d109e519858dd1bdc9e4819985a5b1959603a1b6044820152606490fd5b50506102dd60405161051881610b3f565b8481529161028c565b8492610273565b61053490949194610b15565b6105405783923861025a565b8380fd5b6040513d87823e3d90fd5b8580fd5b818552600260205260408520546001600160a01b031693610207565b6040516330be1a3d60e21b8152600490fd5b60405162461bcd60e51b815260206004820152600c60248201526b75736572206578697374732160a01b6044820152606490fd5b600080fd5b80fd5b50346105ba5760203660031901126105ba57602090600435815260028252604060018060a01b0391205416604051908152f35b50346105ba57806003193601126105ba576003546040516001600160a01b039091168152602090f35b50346105ba57806003193601126105ba576001546040516001600160a01b039091168152602090f35b50346105ba5760203660031901126105ba57602060018060a01b03605560438260045416604051903060388301526f5af43d82803e903d91602b57fd5bf3ff60248301526014820152733d602d80600a3d3981f3363d3d373d3d3d363d73815260043560588201526037600c820120607882015201209060405191168152f35b50346105ba57806003193601126105ba576005546040516001600160a01b039091168152602090f35b50346105ba5760803660031901126105ba57600435610708610ad1565b9060443567ffffffffffffffff811161054057610729903690600401610ae7565b84546001600160a01b0391906107429083163314610c10565b83865260209260028452826040882054166109c157600454608881901c62ffffff16763d602d80600a3d3981f3363d3d373d3d3d363d7300000017885260781b6001600160781b0319166e5af43d82803e903d91602b57fd5bf3178452846037600989f583811696871561056f5788937f452033573db49cf36742da05fb11e8af9b693e2d3effa92546a2871c157ca117604080518a81528b8a820152a160055486169361ffff198916808a14919082156109ae575086955b8b3b156104c25760405163f79c919360e01b8152600481019190915295881660248701528686604481838f5af19283156109a35787968994610986575b50916108949184938895865416968360001461097e57925b15610965576102c791610864913691610b99565b6040519485938d850198634b05363160e01b8a5260248601521660448401526080606484015260a4830190610bd0565b51925af16108a0610c4c565b501561092457849060015416803b1561092057818091602460405180948193634ce81e3b60e11b83528a60048401525af1801561091557610901575b5091600292525260408220906bffffffffffffffffffffffff60a01b82541617905580f35b61090a90610b15565b6105405783386108dc565b6040513d84823e3d90fd5b5080fd5b60405162461bcd60e51b815260048101839052601960248201527818d85b1b081a5b9a5d109e519858dd1bdc9e4819985a5b1959603a1b6044820152606490fd5b50506102c760405161097681610b3f565b858152610864565b508592610850565b610994919792939450610b15565b61054f57908691869538610838565b6040513d89823e3d90fd5b87526002895287604088205416956107fb565b60405162461bcd60e51b815260048101859052600c60248201526b75736572206578697374732160a01b6044820152606490fd5b50346105ba5760403660031901126105ba5780610a10610abb565b81546001600160a01b039190610a299083163314610c10565b16803b15610a69578190602460405180948193635b174d9360e11b8352833560048401525af1801561091557610a5d575080f35b610a6690610b15565b80f35b50fd5b50346105ba5760203660031901126105ba57610a86610abb565b81546001600160a01b039190610a9f9083163314610c10565b166bffffffffffffffffffffffff60a01b600554161760055580f35b600435906001600160a01b03821682036105b557565b602435906001600160a01b03821682036105b557565b9181601f840112156105b55782359167ffffffffffffffff83116105b557602083818601950101116105b557565b67ffffffffffffffff8111610b2957604052565b634e487b7160e01b600052604160045260246000fd5b6020810190811067ffffffffffffffff821117610b2957604052565b90601f8019910116810190811067ffffffffffffffff821117610b2957604052565b67ffffffffffffffff8111610b2957601f01601f191660200190565b929192610ba582610b7d565b91610bb36040519384610b5b565b8294818452818301116105b5578281602093846000960137010152565b919082519283825260005b848110610bfc575050826000602080949584010152601f8019910116010190565b602081830181015184830182015201610bdb565b15610c1757565b60405162461bcd60e51b815260206004820152600d60248201526c6f6e6c7920656e747279454f4160981b6044820152606490fd5b3d15610c77573d90610c5d82610b7d565b91610c6b6040519384610b5b565b82523d6000602084013e565b60609056fea2646970667358221220e6a451bade19b5e87634566316f7d92da3fc89af9020501445812959eb22c66864736f6c634300081900336080346102f8576040906001600160401b039080830182811182821017610206578352600a81526020906915ccd150481413d2539560b21b828201528351928484018481108282111761020657855260059384815264057334541560dc1b848201528251828111610206576003918254916001958684811c941680156102ee575b888510146102d8578190601f94858111610289575b5088908583116001146102275760009261021c575b505060001982861b1c191690861b1783555b80519384116102065760049586548681811c911680156101fc575b828210146101e7578381116101a3575b508092851160011461013a575093839491849260009561012f575b50501b92600019911b1c19161790555b80546001600160a01b0319163317905551610a1190816102fe8239f35b015193503880610102565b92919084601f1981168860005285600020956000905b89838310610189575050501061016f575b50505050811b019055610112565b01519060f884600019921b161c1916905538808080610161565b858701518955909701969485019488935090810190610150565b8760005281600020848088018b1c8201928489106101de575b018a1c019087905b8281106101d25750506100e7565b600081550187906101c4565b925081926101bc565b602288634e487b7160e01b6000525260246000fd5b90607f16906100d7565b634e487b7160e01b600052604160045260246000fd5b0151905038806100aa565b90889350601f19831691876000528a6000209260005b8c828210610273575050841161025b575b505050811b0183556100bc565b015160001983881b60f8161c1916905538808061024e565b8385015186558c9790950194938401930161023d565b9091508560005288600020858085018c1c8201928b86106102cf575b918a9186959493018d1c01915b8281106102c0575050610095565b600081558594508a91016102b2565b925081926102a5565b634e487b7160e01b600052602260045260246000fd5b93607f1693610080565b600080fdfe608060408181526004918236101561001657600080fd5b600092833560e01c91826306fdde03146104e657508163095ea7b31461043857816318160ddd1461041957816323b872dd14610322578163313ce5671461030657816370a08231146102bc57816395d89b41146101b757816399d03c761461014157508063a9059cbb14610111578063c45a0155146100e95763dd62ed3e1461009e57600080fd5b346100e557806003193601126100e557806020926100ba610624565b6100c261063f565b6001600160a01b0391821683526001865283832091168252845220549051908152f35b5080fd5b50346100e557816003193601126100e55760055490516001600160a01b039091168152602090f35b50346100e557806003193601126100e55760209061013a610130610624565b60243590336106b0565b5160018152f35b8383346100e55760203660031901126100e55761015c610624565b60055490936001600160a01b039182163303610185575060019293168352600660205282205580f35b606490602084519162461bcd60e51b8352820152600c60248201526b6f6e6c7920666163746f727960a01b6044820152fd5b8383346100e557816003193601126100e55780519180938054916001908360011c92600185169485156102b2575b602095868610811461029f5785895290811561027b5750600114610223575b61021f8787610215828c0383610655565b51918291826105db565b0390f35b81529295507f8a35acfbc15ff81a39ae7d344fd709f28e8600b4aa8c65c6b64bfe7fe36bd19b5b828410610268575050508261021f9461021592820101948680610204565b805486850188015292860192810161024a565b60ff19168887015250505050151560051b83010192506102158261021f8680610204565b634e487b7160e01b845260228352602484fd5b93607f16936101e5565b5050346100e55760203660031901126100e5576102ff6020926102f9836102e1610624565b6001600160a01b03811684528387529220549161072e565b9061068d565b9051908152f35b5050346100e557816003193601126100e5576020905160128152f35b905082346104165760603660031901126104165761033e610624565b61034661063f565b916044359360018060a01b038316808352600160205286832033845260205286832054916000198303610382575b60208861013a8989896106b0565b8683106103ea5781156103d35733156103bc5750825260016020908152868320338452815291869020908590039055829061013a87610374565b8751634a1406b160e11b8152908101849052602490fd5b875163e602df0560e01b8152908101849052602490fd5b8751637dc7a0d960e11b8152339181019182526020820193909352604081018790528291506060010390fd5b80fd5b5050346100e557816003193601126100e5576020906002549051908152f35b9050346104e257816003193601126104e257610452610624565b6024359033156104cb576001600160a01b03169182156104b457508083602095338152600187528181208582528752205582519081527f8c5be1e5ebec7d5bd14f71427d1e84f3dd0314c0f7b2291e5b200ac8c7c3b925843392a35160018152f35b8351634a1406b160e11b8152908101859052602490fd5b835163e602df0560e01b8152808401869052602490fd5b8280fd5b929150346105d757836003193601126105d757600354600181811c91869082811680156105cd575b60209586861082146105ba5750848852908115610598575060011461053f575b61021f8686610215828b0383610655565b929550600383527fc2575a0e9e593c00f959f8c92f12db2869c3395a3b0502d05e2516446f71f85b5b828410610585575050508261021f9461021592820101943861052e565b8054868501880152928601928101610568565b60ff191687860152505050151560051b83010192506102158261021f3861052e565b634e487b7160e01b845260229052602483fd5b93607f169361050e565b8380fd5b6020808252825181830181905290939260005b82811061061057505060409293506000838284010152601f8019910116010190565b8181018601518482016040015285016105ee565b600435906001600160a01b038216820361063a57565b600080fd5b602435906001600160a01b038216820361063a57565b90601f8019910116810190811067ffffffffffffffff82111761067757604052565b634e487b7160e01b600052604160045260246000fd5b9190820180921161069a57565b634e487b7160e01b600052601160045260246000fd5b91906001600160a01b03808416156106ed578116156106d4576106d2926107cc565b565b60405163ec442f0560e01b815260006004820152602490fd5b604051634b637e8f60e11b815260006004820152602490fd5b9081602091031261063a575190565b6040513d6000823e3d90fd5b9190820391821161069a57565b6001600160a01b031660008181526006602052604081205490929181156107c8576020600491604051928380926311fc372d60e01b82525afa9081156107bd578491610784575b50610781929350610721565b90565b90506020813d6020116107b5575b8161079f60209383610655565b810103126105d757610781929350518392610775565b3d9150610792565b6040513d86823e3d90fd5b5050565b6001600160a01b038116600090815260066020526040902054929190831515806108a4575b610800575b6106d293506108de565b6040516311fc372d60e01b81526020816004816001600160a01b0386165afa90811561089f5761083a918691600091610870575b50610721565b9361084585836108c3565b6106d2946108529161068d565b6001600160a01b0382166000908152600660205260409020556107f6565b610892915060203d602011610898575b61088a8183610655565b810190610706565b38610834565b503d610880565b610715565b5060018060a01b038116600052600060205282604060002054106107f1565b906001600160a01b038216156106d4576106d29160006107cc565b6001600160a01b038082169290918361095857507fddf252ad1be2c89b69c2b068fc378daa952ba7f163c4a11628f55a4df523b3ef916020916109238660025461068d565b6002555b1693846109405780600254036002555b604051908152a3565b84600052600082526040600020818154019055610937565b600090848252816020526040822054908682106109a957509181604087602095887fddf252ad1be2c89b69c2b068fc378daa952ba7f163c4a11628f55a4df523b3ef98965283875203912055610927565b60405163391434e360e21b81526001600160a01b03919091166004820152602481019190915260448101869052606490fdfea26469706673582212209501db1039062b7e45cc8aa7966eda18347e6a09208ab6d03c7e8016b20b6c7d64736f6c63430008190033",
        "linkReferences": {}
    },
    "methodIdentifiers": {
        "accountImpl()": "8804eb9f",
        "deployer()": "d5f39488",
        "increaseGasFreeAmount(address,uint256)": "1f7f77f3",
        "newAccount(uint256,address,string,uint256)": "5addc736",
        "newAccountAndSendTrans(uint256,address,string,uint256,address,uint256,bytes,uint256,bytes)": "fecc8512",
        "predictAccountAddress(uint256)": "a8f3f66a",
        "queryAccount(uint256)": "e31a20ac",
        "upgradeImpl(address)": "1a2f1363",
        "w3eaPoint()": "c2cf745b"
    },
    "id": 40
}