{
  "abi": [
    {
      "type": "constructor",
      "inputs": [],
      "stateMutability": "nonpayable"
    },
    {
      "type": "function",
      "name": "allowance",
      "inputs": [
        {
          "name": "owner",
          "type": "address",
          "internalType": "address"
        },
        {
          "name": "spender",
          "type": "address",
          "internalType": "address"
        }
      ],
      "outputs": [
        {
          "name": "",
          "type": "uint256",
          "internalType": "uint256"
        }
      ],
      "stateMutability": "view"
    },
    {
      "type": "function",
      "name": "approve",
      "inputs": [
        {
          "name": "spender",
          "type": "address",
          "internalType": "address"
        },
        {
          "name": "value",
          "type": "uint256",
          "internalType": "uint256"
        }
      ],
      "outputs": [
        {
          "name": "",
          "type": "bool",
          "internalType": "bool"
        }
      ],
      "stateMutability": "nonpayable"
    },
    {
      "type": "function",
      "name": "balanceOf",
      "inputs": [
        {
          "name": "account",
          "type": "address",
          "internalType": "address"
        }
      ],
      "outputs": [
        {
          "name": "",
          "type": "uint256",
          "internalType": "uint256"
        }
      ],
      "stateMutability": "view"
    },
    {
      "type": "function",
      "name": "decimals",
      "inputs": [],
      "outputs": [
        {
          "name": "",
          "type": "uint8",
          "internalType": "uint8"
        }
      ],
      "stateMutability": "view"
    },
    {
      "type": "function",
      "name": "factory",
      "inputs": [],
      "outputs": [
        {
          "name": "",
          "type": "address",
          "internalType": "address"
        }
      ],
      "stateMutability": "view"
    },
    {
      "type": "function",
      "name": "name",
      "inputs": [],
      "outputs": [
        {
          "name": "",
          "type": "string",
          "internalType": "string"
        }
      ],
      "stateMutability": "view"
    },
    {
      "type": "function",
      "name": "regAccount",
      "inputs": [
        {
          "name": "acct",
          "type": "address",
          "internalType": "address"
        }
      ],
      "outputs": [],
      "stateMutability": "nonpayable"
    },
    {
      "type": "function",
      "name": "symbol",
      "inputs": [],
      "outputs": [
        {
          "name": "",
          "type": "string",
          "internalType": "string"
        }
      ],
      "stateMutability": "view"
    },
    {
      "type": "function",
      "name": "totalSupply",
      "inputs": [],
      "outputs": [
        {
          "name": "",
          "type": "uint256",
          "internalType": "uint256"
        }
      ],
      "stateMutability": "view"
    },
    {
      "type": "function",
      "name": "transfer",
      "inputs": [
        {
          "name": "to",
          "type": "address",
          "internalType": "address"
        },
        {
          "name": "value",
          "type": "uint256",
          "internalType": "uint256"
        }
      ],
      "outputs": [
        {
          "name": "",
          "type": "bool",
          "internalType": "bool"
        }
      ],
      "stateMutability": "nonpayable"
    },
    {
      "type": "function",
      "name": "transferFrom",
      "inputs": [
        {
          "name": "from",
          "type": "address",
          "internalType": "address"
        },
        {
          "name": "to",
          "type": "address",
          "internalType": "address"
        },
        {
          "name": "value",
          "type": "uint256",
          "internalType": "uint256"
        }
      ],
      "outputs": [
        {
          "name": "",
          "type": "bool",
          "internalType": "bool"
        }
      ],
      "stateMutability": "nonpayable"
    },
    {
      "type": "event",
      "name": "Approval",
      "inputs": [
        {
          "name": "owner",
          "type": "address",
          "indexed": true,
          "internalType": "address"
        },
        {
          "name": "spender",
          "type": "address",
          "indexed": true,
          "internalType": "address"
        },
        {
          "name": "value",
          "type": "uint256",
          "indexed": false,
          "internalType": "uint256"
        }
      ],
      "anonymous": false
    },
    {
      "type": "event",
      "name": "Transfer",
      "inputs": [
        {
          "name": "from",
          "type": "address",
          "indexed": true,
          "internalType": "address"
        },
        {
          "name": "to",
          "type": "address",
          "indexed": true,
          "internalType": "address"
        },
        {
          "name": "value",
          "type": "uint256",
          "indexed": false,
          "internalType": "uint256"
        }
      ],
      "anonymous": false
    },
    {
      "type": "error",
      "name": "ERC20InsufficientAllowance",
      "inputs": [
        {
          "name": "spender",
          "type": "address",
          "internalType": "address"
        },
        {
          "name": "allowance",
          "type": "uint256",
          "internalType": "uint256"
        },
        {
          "name": "needed",
          "type": "uint256",
          "internalType": "uint256"
        }
      ]
    },
    {
      "type": "error",
      "name": "ERC20InsufficientBalance",
      "inputs": [
        {
          "name": "sender",
          "type": "address",
          "internalType": "address"
        },
        {
          "name": "balance",
          "type": "uint256",
          "internalType": "uint256"
        },
        {
          "name": "needed",
          "type": "uint256",
          "internalType": "uint256"
        }
      ]
    },
    {
      "type": "error",
      "name": "ERC20InvalidApprover",
      "inputs": [
        {
          "name": "approver",
          "type": "address",
          "internalType": "address"
        }
      ]
    },
    {
      "type": "error",
      "name": "ERC20InvalidReceiver",
      "inputs": [
        {
          "name": "receiver",
          "type": "address",
          "internalType": "address"
        }
      ]
    },
    {
      "type": "error",
      "name": "ERC20InvalidSender",
      "inputs": [
        {
          "name": "sender",
          "type": "address",
          "internalType": "address"
        }
      ]
    },
    {
      "type": "error",
      "name": "ERC20InvalidSpender",
      "inputs": [
        {
          "name": "spender",
          "type": "address",
          "internalType": "address"
        }
      ]
    }
  ],
  "bytecode": {
    "object": "0x6080346102f8576040906001600160401b039080830182811182821017610206578352600a81526020906915ccd150481413d2539560b21b828201528351928484018481108282111761020657855260059384815264057334541560dc1b848201528251828111610206576003918254916001958684811c941680156102ee575b888510146102d8578190601f94858111610289575b5088908583116001146102275760009261021c575b505060001982861b1c191690861b1783555b80519384116102065760049586548681811c911680156101fc575b828210146101e7578381116101a3575b508092851160011461013a575093839491849260009561012f575b50501b92600019911b1c19161790555b80546001600160a01b0319163317905551610a1190816102fe8239f35b015193503880610102565b92919084601f1981168860005285600020956000905b89838310610189575050501061016f575b50505050811b019055610112565b01519060f884600019921b161c1916905538808080610161565b858701518955909701969485019488935090810190610150565b8760005281600020848088018b1c8201928489106101de575b018a1c019087905b8281106101d25750506100e7565b600081550187906101c4565b925081926101bc565b602288634e487b7160e01b6000525260246000fd5b90607f16906100d7565b634e487b7160e01b600052604160045260246000fd5b0151905038806100aa565b90889350601f19831691876000528a6000209260005b8c828210610273575050841161025b575b505050811b0183556100bc565b015160001983881b60f8161c1916905538808061024e565b8385015186558c9790950194938401930161023d565b9091508560005288600020858085018c1c8201928b86106102cf575b918a9186959493018d1c01915b8281106102c0575050610095565b600081558594508a91016102b2565b925081926102a5565b634e487b7160e01b600052602260045260246000fd5b93607f1693610080565b600080fdfe608060408181526004918236101561001657600080fd5b600092833560e01c91826306fdde03146104e657508163095ea7b31461043857816318160ddd1461041957816323b872dd14610322578163313ce5671461030657816370a08231146102bc57816395d89b41146101b757816399d03c761461014157508063a9059cbb14610111578063c45a0155146100e95763dd62ed3e1461009e57600080fd5b346100e557806003193601126100e557806020926100ba610624565b6100c261063f565b6001600160a01b0391821683526001865283832091168252845220549051908152f35b5080fd5b50346100e557816003193601126100e55760055490516001600160a01b039091168152602090f35b50346100e557806003193601126100e55760209061013a610130610624565b60243590336106b0565b5160018152f35b8383346100e55760203660031901126100e55761015c610624565b60055490936001600160a01b039182163303610185575060019293168352600660205282205580f35b606490602084519162461bcd60e51b8352820152600c60248201526b6f6e6c7920666163746f727960a01b6044820152fd5b8383346100e557816003193601126100e55780519180938054916001908360011c92600185169485156102b2575b602095868610811461029f5785895290811561027b5750600114610223575b61021f8787610215828c0383610655565b51918291826105db565b0390f35b81529295507f8a35acfbc15ff81a39ae7d344fd709f28e8600b4aa8c65c6b64bfe7fe36bd19b5b828410610268575050508261021f9461021592820101948680610204565b805486850188015292860192810161024a565b60ff19168887015250505050151560051b83010192506102158261021f8680610204565b634e487b7160e01b845260228352602484fd5b93607f16936101e5565b5050346100e55760203660031901126100e5576102ff6020926102f9836102e1610624565b6001600160a01b03811684528387529220549161072e565b9061068d565b9051908152f35b5050346100e557816003193601126100e5576020905160128152f35b905082346104165760603660031901126104165761033e610624565b61034661063f565b916044359360018060a01b038316808352600160205286832033845260205286832054916000198303610382575b60208861013a8989896106b0565b8683106103ea5781156103d35733156103bc5750825260016020908152868320338452815291869020908590039055829061013a87610374565b8751634a1406b160e11b8152908101849052602490fd5b875163e602df0560e01b8152908101849052602490fd5b8751637dc7a0d960e11b8152339181019182526020820193909352604081018790528291506060010390fd5b80fd5b5050346100e557816003193601126100e5576020906002549051908152f35b9050346104e257816003193601126104e257610452610624565b6024359033156104cb576001600160a01b03169182156104b457508083602095338152600187528181208582528752205582519081527f8c5be1e5ebec7d5bd14f71427d1e84f3dd0314c0f7b2291e5b200ac8c7c3b925843392a35160018152f35b8351634a1406b160e11b8152908101859052602490fd5b835163e602df0560e01b8152808401869052602490fd5b8280fd5b929150346105d757836003193601126105d757600354600181811c91869082811680156105cd575b60209586861082146105ba5750848852908115610598575060011461053f575b61021f8686610215828b0383610655565b929550600383527fc2575a0e9e593c00f959f8c92f12db2869c3395a3b0502d05e2516446f71f85b5b828410610585575050508261021f9461021592820101943861052e565b8054868501880152928601928101610568565b60ff191687860152505050151560051b83010192506102158261021f3861052e565b634e487b7160e01b845260229052602483fd5b93607f169361050e565b8380fd5b6020808252825181830181905290939260005b82811061061057505060409293506000838284010152601f8019910116010190565b8181018601518482016040015285016105ee565b600435906001600160a01b038216820361063a57565b600080fd5b602435906001600160a01b038216820361063a57565b90601f8019910116810190811067ffffffffffffffff82111761067757604052565b634e487b7160e01b600052604160045260246000fd5b9190820180921161069a57565b634e487b7160e01b600052601160045260246000fd5b91906001600160a01b03808416156106ed578116156106d4576106d2926107cc565b565b60405163ec442f0560e01b815260006004820152602490fd5b604051634b637e8f60e11b815260006004820152602490fd5b9081602091031261063a575190565b6040513d6000823e3d90fd5b9190820391821161069a57565b6001600160a01b031660008181526006602052604081205490929181156107c8576020600491604051928380926311fc372d60e01b82525afa9081156107bd578491610784575b50610781929350610721565b90565b90506020813d6020116107b5575b8161079f60209383610655565b810103126105d757610781929350518392610775565b3d9150610792565b6040513d86823e3d90fd5b5050565b6001600160a01b038116600090815260066020526040902054929190831515806108a4575b610800575b6106d293506108de565b6040516311fc372d60e01b81526020816004816001600160a01b0386165afa90811561089f5761083a918691600091610870575b50610721565b9361084585836108c3565b6106d2946108529161068d565b6001600160a01b0382166000908152600660205260409020556107f6565b610892915060203d602011610898575b61088a8183610655565b810190610706565b38610834565b503d610880565b610715565b5060018060a01b038116600052600060205282604060002054106107f1565b906001600160a01b038216156106d4576106d29160006107cc565b6001600160a01b038082169290918361095857507fddf252ad1be2c89b69c2b068fc378daa952ba7f163c4a11628f55a4df523b3ef916020916109238660025461068d565b6002555b1693846109405780600254036002555b604051908152a3565b84600052600082526040600020818154019055610937565b600090848252816020526040822054908682106109a957509181604087602095887fddf252ad1be2c89b69c2b068fc378daa952ba7f163c4a11628f55a4df523b3ef98965283875203912055610927565b60405163391434e360e21b81526001600160a01b03919091166004820152602481019190915260448101869052606490fdfea264697066735822122053c6bc19e3c5baafac4c0c7679c8f95e43dfde906017f2d8df650f57a8c8a8aa64736f6c63430008190033",
    "linkReferences": {}
  },
  "methodIdentifiers": {
    "allowance(address,address)": "dd62ed3e",
    "approve(address,uint256)": "095ea7b3",
    "balanceOf(address)": "70a08231",
    "decimals()": "313ce567",
    "factory()": "c45a0155",
    "name()": "06fdde03",
    "regAccount(address)": "99d03c76",
    "symbol()": "95d89b41",
    "totalSupply()": "18160ddd",
    "transfer(address,uint256)": "a9059cbb",
    "transferFrom(address,address,uint256)": "23b872dd"
  },
  "id": 45
}